:020000040800F2
:10000000186200205D0200086B760008B3520008F9
:1000100069760008290D0008A58F0008000000007F
:100020000000000000000000000000009D0100082A
:100030008B18000800000000F901000895800008F6
:1000400077020008770200087702000877020008AC
:10005000770200087702000877020008770200089C
:10006000770200087702000877020008770200088C
:10007000A517000877020008B117000877020008EA
:10008000770200087702000877020008750D000863
:10009000690D00087702000877020008770200085F
:1000A00077020008D1810008B581000877020008B6
:1000B000770200087702000877020008770200083C
:1000C000770200087702000877020008770200082C
:1000D000770200086D8F0008798F0008858F00086F
:1000E000770200087702000877020008770200080C
:1000F00077020008058200087702000877020008EE
:1001000077020008770200087702000877020008EB
:100110001D85000877020008ED810008F9810008BC
:100120007702000877020008BD1700087702000870
:10013000770200087702000877020008F90D00082E
:10014000ED0D00087702000877020008770200082A
:10015000770200087702000877020008998F0008EC
:10016000770200087702000877020008770200088B
:1001700077020008770200087702000800000000FC
:100180007702000877020008DFF80CD000F084FB4B
:1001900000480047D59F0008186200202C4B1968C2
:1001A0000868B0E8F04F80F30988BFF36F8F4FF015
:1001B000000080F3118870470000000008480068C4
:1001C000006880F308884FF0000080F3148862B65E
:1001D00061B6BFF34F8FBFF36F8F00DF00BF00BF6B
:1001E00008ED00E0DFF80C00016841F470010160E7
:1001F000704700BF88ED00E0EFF30980BFF36F8F19
:10020000134B1A681EF0100F08BF20ED108A20E96A
:10021000F04F106009B44FF0500080F31188BFF325
:100220004F8FBFF36F8F0AF08DFE4FF0000080F309
:10023000118809BC19680868B0E8F04F1EF0100F6B
:1002400008BFB0EC108A80F30988BFF36F8F704746
:10025000B0000020EFF3058070470000064880479B
:1002600006480047FEE7FEE7FEE7FEE7FEE7FEE79B
:10027000FEE7FEE7FEE7FEE7498100088901000886
:100280002DE9F05F0546002092469B4688460646CB
:10029000814640241BE0284641464746224600F05E
:1002A00064FA53465A46C01A914110D31146184673
:1002B000224600F04BFA2D1A67EB01084F46224602
:1002C0000120002100F042FA17EB00094E41201EE8
:1002D000A4F10104DFDC484631462A464346BDE826
:1002E000F09F40EA01039B0703D009E008C9121FF1
:1002F00008C0042AFAD203E011F8013B00F8013BE0
:10030000521EF9D27047D2B201E000F8012B491E0B
:10031000FBD270470022F6E710B513460A460446A2
:100320001946FFF7F0FF204610BD2DE9FE4F80462D
:1003300081EA0300C00F0C46009021F0004123F039
:100340000045B8EB0200A94105D24046214690463F
:100350001C460B46024623F00040104347D0270DB1
:10036000C7F30A00C3F30A510290401A01904028D3
:100370006BDAC3F3130040F4801B0098924620B15F
:100380000023D2EB030A63EB0B0B01985946C0F133
:100390004002504600F0DAF906460D4650465946EE
:1003A000019A00F0F2F910EB08006141002487EA9D
:1003B000115284EAE7731A4340D0009A62B3019A5B
:1003C000012A4FEA075215DC001B61EB02014FF0D6
:1003D000004202EA0752CDE90042001C41F58011BB
:1003E00032462B4600F0F2F903B0BDE8F08F4046EC
:1003F0002146F9E7001B61EB0201001C41F5801367
:1004000000185B412018A2F5001747EB030140EAF2
:10041000D570B6196D4111E06D084FEA360645EA10
:10042000C0754FEA0752001B61EB0201001C41F549
:10043000801149084FEA30000019514132462B46DD
:1004400003B0BDE8F04F00F0B2B9009801224000BF
:100450000023D0EB020263EBE073009821464FEAE1
:10046000E074B8EB000061EB0401E9E783F00043BE
:100470005BE781F0004158E72DE9FE4F81EA030474
:1004800004F0004421F0004100944FF0000B23F0F1
:10049000004350EA01045ED052EA03045BD0C3F388
:1004A0000A54C1F30A552C44A4F2F3340194A0FB7E
:1004B0000254C1F3130141F48011C3F3130343F455
:1004C000801301FB024400FB034E840A970A44EAAE
:1004D000815447EA8357A4FB076802958D0A05FB00
:1004E00007854FEA932C04FB0C542705029D4FEA25
:1004F000065847EA1637B5EB08056EEB070C870E72
:10050000920E47EA811742EA8312A7FB0201B6EB7B
:100510000B0164EB00042B0D43EA0C335E1844EB33
:100520001C50DA465146E7FB0201C5F313044FEABB
:100530000B3343EA14534FEA0432019C43EA0603A7
:10054000A4F10C040294009CCDE900B400F03EF943
:1005500003B0BDE8F08F00200146F9E72DE9F04D2A
:1005600081EA030404F0004B21F0004514464FF0EB
:10057000000A23F0004150EA050220D054EA0102AB
:100580001DD0C5F30A570246C5F31303C1F3130088
:10059000C1F30A5640F4801543F48013A7EB060814
:1005A000101BD64608F2FD3873EB050002D308F1A4
:1005B000010801E092185B41B8F1000F03DA002056
:1005C0000146BDE8F08D00204FF4801106468446B8
:1005D0000EE0171B73EB050705D3121B63EB050336
:1005E00006434CEA010C49084FEA300092185B417F
:1005F00050EA0107EDD152EA030012D082EA04006A
:1006000083EA0501084305D0101BAB4106D2012245
:10061000002306E000224FF0004302E06FF00102E9
:1006200053101AEB06004CEB085110EB0A0041EB9B
:100630000B01BDE8F04D00F0BAB80EB5C10F80EA6D
:10064000E0700844CA07002140F233438DE80E00F1
:100650000A460B4600F0BAF803B000BD70B5C1F30E
:100660000A5201F000450024C1F3130140F2FF33A8
:1006700041F480119A4201DA002070BD40F2334308
:100680009A42A2F2334203DC524200F06EF800E0DC
:1006900090402C43F1D0404270BD00F0004230F059
:1006A00000400AD0C10D01F56071C0F3160042EAA6
:1006B0000151C208400711437047002001467047AE
:1006C00030B5041E71F1000404DB4FF000444042D9
:1006D00064EB0101141E73F1000405DB1C464FF0AE
:1006E0000043524263EB04038B4208BF824230BD99
:1006F00030B5041E71F1000404DB4FF000444042A9
:1007000064EB0101141E73F1000405DB1C464FF07D
:100710000043524263EB0403994208BF904230BD4C
:1007200030B50B46014600202022012409E021FAC1
:1007300002F59D4205D303FA02F5491B04FA02F5BE
:100740002844151EA2F10102F1DC30BD202A04DB91
:10075000203A00FA02F1002070479140C2F12003D4
:1007600020FA03F3194390407047202A04DB203A13
:1007700021FA02F00021704721FA02F3D040C2F1C1
:1007800020029140084319467047202A06DBCB1708
:10079000203A41FA02F043EAE07306E041FA02F33C
:1007A000D040C2F12002914008431946704710B56D
:1007B000141E73F1000408DA401C41F10001921884
:1007C0005B411A4301D120F0010010BD2DE9F04D2D
:1007D00092469B4611B1B1FA81F202E0B0FA80F282
:1007E00020329046FFF7B2FF04460F4640EA0A0067
:1007F00041EA0B0153465A46084313D0114653EAC7
:10080000010019D0C8F140025046FFF7AEFF05467F
:100810000E46504659464246FFF798FF084305D01A
:10082000012004E020463946BDE8F08D0020054354
:1008300046EAE0762C4337430A986305E40AA0EBC6
:1008400008000022FD0A44EA47540A3002D500207D
:100850000146E9E7010510196941DDE9084500197C
:100860006941BDE8F04DA2E7C1F30A52C1F313019B
:1008700040F2FF3341F480119A4202DA002001462F
:10088000704740F233439A42A2F2334202DC5242B2
:10089000FFF76BBFFFF75ABF064C074D06E0E06855
:1008A00040F0010394E8070098471034AC42F6D3B7
:1008B000FFF76EFC94C40008B4C4000830B58C186F
:1008C00010F8012B12F00F0301D110F8013B1209AF
:1008D00006D110F8012B03E010F8015B01F8015B71
:1008E0005B1EF9D101E001F8013B521EFBD1A14290
:1008F000E6D3002030BD0000014801F04BBB0000F2
:1009000078040020464910B54A6822F440324A6013
:100910004A6843681A434A6001684A6822F4807250
:100920004A6001684A68036942EA03224A60016832
:100930004A6822F040724A6001684A6883681A4334
:100940004A6001688A6822F400628A6001688A68E5
:10095000C3681A438A60816A6FF07062D14201688D
:100960008A6822F070628A6001688A680CD0836AA3
:100970001A438A6001688A6822F040528A600168DE
:100980008A68C36A1A4301E022F040528A60016813
:100990008A6822F002028A6001688A68037E42EA5D
:1009A00043028A6090F82010002901684A680FD03D
:1009B00042F400624A6001684A6822F460424A6078
:1009C00001684A68174C436A04EB43331A4301E059
:1009D00022F400624A600168CA6A22F47002CA62A4
:1009E0000168CA6A838B104C04EB03531A43CA6232
:1009F00001688A6822F400728A6001688A6890F847
:100A0000303042EA43228A6001688A6822F48062B8
:100A10008A6001688A68406942EA8020886010BD67
:100A20000023014000E0FFFF0000F0FF0B48407A88
:100A30000F2808D90A48B0F86A100A0A80F8E62098
:100A400080F8E71004E006488030002141668166A6
:100A5000034940F2FF10E43100F0D4B9BC05002096
:100A6000045800200A48407A0F2801D900F0F2B853
:100A700008489FED090A416F81670021A0F86C10BA
:100A800080ED340AA0F868100448817370470000B4
:100A9000BC05002004580020000000004056002043
:100AA00010B5124C2DED028BB4F970006E34FFF7C7
:100AB000C4FD9FED0F1B53EC112BFFF7DDFC41EC48
:100AC000180BB4F90000FFF7B8FD9FED0B1B53ECBA
:100AD000112BFFF7D1FC53EC182BFFF726FCFFF787
:100AE000BDFD6080BDEC028B10BD000004580020ED
:100AF0009A9999999999C93F9A9999999999E93F98
:100B000010B5124C2DED028BB4F96A006834FFF772
:100B100094FD9FED0F1B53EC112BFFF7ADFC41EC47
:100B2000180BB4F90000FFF788FD9FED0B1B53EC89
:100B3000112BFFF7A1FC53EC182BFFF7F6FBFFF787
:100B40008DFD6080BDEC028B10BD000004580020BC
:100B5000000000000000D03F000000000000E83F5F
:100B600010B59FED152AB0EE001A2DED028BF7EEB1
:100B7000000A9FED108ADFED118AB2EE060AF0EE50
:100B8000482AF0EE681A0E4809F004FCF0EE482AF4
:100B9000B0EE482AF0EE681AB0EE481AF0EE480AB5
:100BA000BDEC028BB1EE0A0A0548BDE810403438AE
:100BB00009F0F0BB0000000000409C4500007A46B0
:100BC000B458002010B5164C04F17C0094ED1D0AB9
:100BD000F8EEC00A94ED1E0A6834B8EEC00A09F0B7
:100BE00007FBF2EE040A80EE201ABDEEC10A10EEF9
:100BF000100A00B2A080B4F9081000EE101AF8EE46
:100C0000C00A00EE100A04F14800B8EEC00A09F06C
:100C1000EFFABDEEC00A10EE100A208010BD0000F1
:100C20000458002010B504F045FB07F00FFAFFF759
:100C300037FFFFF717FF0648407A0F2801D9FFF763
:100C4000C1FFFFF75DFFBDE81040FFF7EFBE0000FA
:100C5000BC0500200A480B4A0146837B91F84710E7
:100C600063B9C37B53B9807C012807D1D078814216
:100C700004D00548836F03F646238367D17070471D
:100C800040560020620100200458002010B52DEDD0
:100C9000028B44784CB100220223012C09D0022C93
:100CA0000ED0032C07D181B104E0002903D001212B
:100CB00009E019B14370BDEC028B10BD4270FAE738
:100CC0000029F8D103214170F5E74270C078134C38
:100CD0009FED138B48B1012810D002281AD00328A9
:100CE000E9D1208B401F2083E5E7B4F91600FFF718
:100CF000A4FC53EC182BFFF718FB07E0B4F916001F
:100D0000FFF79BFC53EC182BFFF7B0FBFFF7A6FC9B
:100D1000E082D0E7208B401DE5E700004056002030
:100D2000000000000000F83FFEE7000000B58BB0B7
:100D30000020012103900490CDE90601CDE90810BF
:100D400005900090019002906946064801F016FA5D
:100D5000044801F017FE0221024801F099F90BB096
:100D600000BD0000C0040020014801F002BB0000EB
:100D7000C0040020014801F0FCBA0000C0040020BB
:100D800000B587B0084A0090002002900390082028
:100D90000490107D0123401C10750A4669460348E3
:100DA00001F088F907B000BDBC050020C004002098
:100DB00000B58BB00020012103900490CDE906011D
:100DC000CDE9081005900090019002906946064810
:100DD00001F0D4F9044801F0D5FD0221024801F0E8
:100DE00057F90BB000BD0000E8040020014801F0F5
:100DF000C0BA0000E8040020014801F0BABA0000BF
:100E0000E804002000B587B0084A00900020029056
:100E1000039008200490507D0223401C50750A4620
:100E20006946034801F046F907B000BDBC05002043
:100E3000E8040020014807F04DBF0000D850002012
:100E400010B5214C002121A22378084606F0A0FD10
:100E500021A20121002006F069FDA37920A2022130
:100E6000002006F095FDE37920A20321002006F082
:100E70008FFD637820A20021402006F089FD21A289
:100E80000121402006F052FDA37820A2022140203B
:100E900006F07EFDE37820A20321402006F078FDD5
:100EA000237920A20421402006F072FD637920A25C
:100EB0000521402006F06CFD237A0621BDE8104094
:100EC0001EA2402006F064BDBC05002043414E3107
:100ED00054783A256400000043414E3152780000B6
:100EE00030783230363A25640000000030783230F5
:100EF000393A25640000000043414E3254783A25C7
:100F00006400000043414E325278000030783230A5
:100F1000313A25640000000030783230323A2564DE
:100F20000000000030783230333A256400000000C1
:100F300030783230343A25640000000030783230A6
:100F4000413A2564000000000848417A08480F290A
:100F500001D9018B01E0074949890A0A02744174E9
:100F600003494FF404701031FFF74CBFBC0500205B
:100F70002456002052010020014807F0ABBE0000BB
:100F800018520020114830B4407A0F2817D9104960
:100F9000002000BF00EBC00202EB420201EB820224
:100FA00032F86A3F1C0A01EB4003401C83F8B04151
:100FB0001278C0B283F8B1210428EBD303E00548CE
:100FC00000210163416330BCFFF7BEBFBC050020B8
:100FD00064540020E45500200FB47F482DE9F04F01
:100FE0002DED088B89B0407A269C0F287ED92022CF
:100FF0001DA96846FFF775F91AAD20B295E80E00F5
:1010000000F0E0FA754CB4F9BC01FFF716FB8A4614
:101010004AEC100B06469FED729B51EC100B53EC03
:10102000192BFFF79BFA41EC1A0BB4F9BA01FFF741
:1010300004FB894649EC100B05469FED6B8B51EC88
:10104000100B53EC182BFFF789FA41EC1B0BB4F98A
:10105000B8018046FFF7F1FA8B464BEC100B0746C0
:1010600053EC182B51EC100BFFF778FA53EC1B2BB9
:10107000FFF75BF953EC1A2BFFF757F9FFF7EEFA7E
:101080004AEC106B208053EC192B51EC100BFFF73E
:1010900065FA49EC105B41EC1A0B53EC182B51EC40
:1010A000100BFFF75BFA4BEC107B41EC1B0B53EC86
:1010B000182B51EC100BFFF751FA53EC1B2BFFF7D9
:1010C000D5F953EC1A2BFFF730F9FFF7C7FA4AECC2
:1010D000106BA4F86C0053EC192B51EC100BFFF7BC
:1010E0003DFA41EC1A0B49EC105B00E06AE053EC6E
:1010F000182B51EC100BFFF731FA41EC1B0BC8F128
:101100000000FFF79AFA884648EC100B074653ECAC
:10111000182B51EC100BFFF721FA53EC1B2BFFF7A8
:1011200004F953EC1A2BFFF700F9FFF797FA4AEC92
:10113000106BA4F8D80053EC192B51EC100BFFF7EF
:101140000DFA49EC105B41EC190B53EC182B51ECE8
:10115000100BFFF703FA48EC107B41EC1A0B53EC31
:10116000182B51EC100BFFF7F9F953EC1A2BFFF782
:101170007DF953EC192BFFF7D8F8FFF76FFA1C49EC
:10118000A4F84401002009894B420DB20FFA83F6FE
:1011900000EBC00202EB420234F922708F4201DD03
:1011A00024F8225034F922709F4201DA24F8226098
:1011B000401C0428ECDB09B0BDEC088BBDE8F00F47
:1011C0005DF814FB09B0BDEC088BBDE8F00F5DF8CD
:1011D00014EB00F0ADB90000BC0500206454002001
:1011E0009A9999999999C93F9A9999999999B93FD1
:1011F0005201002070B5294C00252DED068B9FED86
:10120000288B9FED299B00BF05EBC50000EB40003C
:1012100004EB8006B6F91400FFF70FFA53EC182B15
:10122000FFF72AF941EC1A0BB6F90800FFF705FAA7
:1012300053EC192BFFF720F953EC1A2BFFF775F835
:10124000FFF70CFA6D1CEDB2B082042DDCD3002543
:1012500005EBC50000EB400004EB8006B6F9160074
:10126000FFF7EBF953EC182BFFF706F941EC1A0BDB
:10127000B6F90A00FFF7E1F953EC192BFFF7FCF878
:1012800053EC1A2BFFF751F8FFF7E8F96D1CEDB29C
:10129000F082042DDCD3BDEC068B70BD64540020BD
:1012A0009A9999999999C93F9A9999999999E93FE0
:1012B0002DE9F0414FF47A572DED068B0024C7F14C
:1012C00000089FED1C9B9FED1DAB1E4E04EBC40060
:1012D00000EB400006EB8005B5F96A006835FFF7C2
:1012E000ACF953EC192BFFF7C7F841EC180BB5F923
:1012F0000000FFF7A2F953EC1A2BFFF7BDF853ECEF
:10130000182BFFF712F8FFF7A9F900B26880683DC3
:10131000B84202DBA5F86A7003E0404501DCA5F89D
:101320006A80641CE4B2042CD0D3BDEC068BBDE80B
:10133000F08100009A9999999999C93F9A99999938
:101340009999E93F6454002070B5204D00242DED9B
:10135000048B9FED1C9ADFED1C9ADFED1D8A9FED3B
:101360001D8A00BF04EBC40000EB400005EB8000C9
:10137000F0EE681AB0EE481AF0EE490AB0EE690ACB
:10138000203009F00DF8641CE4B2042CEAD30024E8
:101390009FED119A04EBC40000EB4000F0EE480A08
:1013A00005EB8000F0EE681AB0EE601AB0EE490A64
:1013B000443008F0F5FF641CE4B2042CEAD3BDEC21
:1013C000048B70BD6666263FCDCC2C416454002052
:1013D00000007A46000000006666A63F70B5224C09
:1013E000002500BF05EBC50000EB400204EB8206C0
:1013F00006F12000B6F9141000EE101A34F922108C
:10140000F8EEC00A00EE101AB8EEC00A08F068FF45
:10141000BDEEC00A6D1CEDB210EE100A042D7080F6
:10142000E0D3002505EBC50000EB400004EB80068F
:1014300006F14400B6F9161000EE101AB6F90210C3
:10144000F8EEC00A00EE101AB8EEC00A08F048FF25
:10145000BDEEC00A6D1CEDB210EE100A042DA6F808
:101460006800DFD370BD00006454002010B504F0A4
:101470004FFB194C208104F043FB84ED030A2089C3
:1014800040B100EBC00101EB00104FF6FF7101EA23
:10149000800001E041F288302083B4F902000F4956
:1014A0000F4CB0F5AF6F0ADAB0F5966F03DD4FF46D
:1014B000FA60088101E000F03BF8012009E0E27CDD
:1014C000002A07D0B0F5E16F04DD41F270700881A9
:1014D0000020E07410BD00002456002052010020BE
:1014E000405600200FB400B58BB0FFF7BFFF0E22AF
:1014F00017A907A8FEF7F5FE1C2210A96846FEF7FB
:10150000F0FE0DF1300C9CE80F00FFF765FDFFF7D2
:1015100071FE0648407A0F2801D9FFF75FFFFFF7F9
:10152000C7FE0BB05DF814EBFFF72CBDBC05002027
:101530002DE9F0411F4800262DED028B354606634C
:101540004663066546651C481C4F9FED1D8A466034
:10155000866000BF05EBC50000EB400007EB800490
:1015600027F8206084ED0B8A84ED0F8A84ED108AC1
:1015700084ED0D8A04F12000F0EE480AB0EE480A2E
:1015800008F0AEFE668084ED148A84ED188A84ED3E
:10159000198A84ED168A04F14400F0EE480AB0EE90
:1015A000480A08F09DFE6D1C042DD3DBBDEC028BB8
:1015B000BDE8F081E455002040560020645400202E
:1015C000000000002DE9F041604907462DED048B35
:1015D000002091F848305E4C022B7CD191F84710E6
:1015E00016149FED5C8B15B2012948D0022972D0E8
:1015F000032940D19FED599BB42F0CDDC7F5B47082
:101600004043FFF71AF853EC192BFEF735FFFFF7AD
:1016100025F8404209E017FB07F0FFF70EF853ECFE
:10162000192BFEF729FFFFF719F8A4F8BC0101B246
:101630004FF43470814201DBA4F8BC01B4F9BC1151
:101640004848814201DCA4F8BC013046FEF7F5FFB2
:1016500053EC182BFEF710FFFFF700F8A4F8BA01BF
:101660002846FEF7EAFF53EC182BFEF705FFFEF7BE
:10167000F5FFA4F8B801BDEC048BBDE8F08130465D
:10168000FEF7DBFF53EC182BFEF7F6FEFEF7E6FF46
:10169000354E30802846FEF7D0FF9FED341B53ECCB
:1016A000112BFEF7E9FEFEF7D9FF7080384608F0EF
:1016B000A9F9B6F9000000EE900A3846F8EEE00A03
:1016C00020EE208A09F068F9B6F9020000EE900ACF
:1016D000F8EEE00A00E034E000EE808ABDEEC80AD1
:1016E00010EE100AA4F8BA01384609F055F9B6F917
:1016F000000000EE900A3846F8EEE00A20EE208A5C
:1017000008F080F9B6F9020000EE900AF8EEE00A5F
:1017100000EEC08ABDEEC80A10EE100A00B2A4F8AE
:10172000B801B4F9BA11002900DC4942B18000289F
:1017300000DC4042F0804FF4437000BFA4F8BC01CD
:1017400099E7A4F8B801A4F8BA01F7E740560020D9
:1017500064540020000000000000E03F9A9999992D
:101760009999E93F30FDFFFF520100200000000081
:101770000000E0BF10B54FF47A7341F61842994269
:1017800005D28488944202D90268521C06E0914234
:1017900005D982889A4202D20268521E0260818074
:1017A00010BD0000014801F01DBE00001411002012
:1017B000014801F017BE000074110020014801F03B
:1017C00011BE0000B410002001681823CAB2103AFC
:1017D000B2FBF3F2054B6FF30901032A9B5CC3656F
:1017E00000D9091D81650846704700001CBB000830
:1017F00010B5014600208B698A6A4FF0C07453B15E
:10180000B3F5005F15D072B1012A0CD0022A0AD0BC
:10181000032A09D104E01AB1012A06D0022A03D111
:10182000C96AC90100D5012010BDC96AA142FAD018
:1018300010BD002AF7D0012AF2D0022AF3D0032AE1
:10184000F3D010BD10B5046863608368402B036853
:1018500003D099600068C26010BD9A600068C160E2
:1018600010BD30B50468256825F48025256004681E
:1018700063608368402B036803D099600068C2608E
:1018800030BD9A600068C16030BD7047704700008D
:1018900010B5134C2DED028B20899FED128A20800C
:1018A000B4F87400A4F86C0004F1D800F0EE480A13
:1018B000B0EE480A08F014FD04F1FC00F0EE480A0E
:1018C000B0EE480A08F00CFD84ED3B8A84ED448AB2
:1018D0000020A4F86800A4F8D400BDEC028B10BD71
:1018E00090560020000000000E4910B591F84840C5
:1018F00001220D480D4B012C0CD0022C04D0032CDE
:1019000007D18A74198807E000220280A0F86C20B1
:101910008A7410BD8A74598801804942A0F86C10FD
:1019200010BD000040560020905600205E010020AF
:101930000E48407A0F280FD90D48B0F86A100A0AED
:1019400080F8682180F86911B0F8D6100A0A80F88A
:101950006A2180F86B1103E0064800218166C166A8
:1019600004494FF400706831FFF70ABABC05002043
:10197000905600209057002070B52348234C244DEA
:101980002DED028B407A0F2802D9FFF7ADFF01E061
:10199000FFF77EFFB4F90000FEF74FFE9FED1D1B21
:1019A00053EC112BFEF768FD41EC180BB4F908005D
:1019B000FEF743FE53EC182BFEF782FE07D2B4F974
:1019C0000000B0F57A7F02DD0120A87302E0A87B59
:1019D000012816D1B4F90000FEF72FFE9FED0F1B72
:1019E00053EC112BFEF748FD41EC180BB4F908003D
:1019F000FEF723FE53EC182BFEF77AFE01D80020E9
:101A0000A873BDEC028B70BDBC0500209056002071
:101A100040560020333333333333EB3F666666661C
:101A20006666EE3F10B51F4C2DED068BB4F96A00CB
:101A30006834FEF702FE9FED1CAB53EC1A2BFEF749
:101A40001BFD41EC180BB4F90000FEF7F6FD9FED0D
:101A5000189B53EC192BFEF70FFD53EC182BFEF7D8
:101A600064FCFEF7FBFD24F8020FB4F96C006A3445
:101A7000FEF7E3FD53EC1A2BFEF7FEFC41EC180BCE
:101A8000B4F90000FEF7D9FD53EC192BFEF7F4FC76
:101A900053EC182BFEF749FCFEF7E0FD6080BDEC2F
:101AA000068B10BD905600209A9999999999C93F33
:101AB0009A9999999999E93F10B5B1EE020A2DEDDD
:101AC000048B9FED0F8ADFED0F8A9FED0F9AF0EEEA
:101AD000481AB0EE681AF0EE490A0C4808F060FCAB
:101AE000F0EE481AB0EE681AF0EE490ABDEC048B2D
:101AF000B1EE020A0548BDE81040243008F050BCA1
:101B000000C079449A99193E6666263F68570020BE
:101B100010B5174CB4F9080000EE100AB4F9000033
:101B2000F8EEC00A00EE100A04F1D800B8EEC00AC0
:101B300008F0D6FBBDEEC00A10EE100AA4F868004B
:101B4000B4F9740000EE100AB4F96C00F8EEC00AA3
:101B500000EE100A04F1FC00B8EEC00A08F0C0FB69
:101B6000BDEEC00A10EE100AA4F8D40010BD0000AB
:101B70009056002010B5FFF7FFFE0648407A0F2868
:101B800001D9FFF7C5FFFFF74DFFBDE81040FFF794
:101B9000CFBE0000BC0500200E498A78C2B14A7849
:101BA000CB1D13F8122002704A7803EB4203521C3B
:101BB0005B784370D2B200204A70142A00D3487078
:101BC0000A784B78934200D0022088700120704739
:101BD000002070475400002070B590F83C20694DFB
:101BE000012A19D0012280F83C200A6807230468E2
:101BF000092A13D9E6680A3A02EB420293409E434F
:101C0000E6600A788B680A3A02EB42029340026867
:101C1000D4682343D36010E0022070BD266902EB34
:101C2000420293409E4326610A788B6802EB42028F
:101C3000934002681469234313610268936B23F491
:101C4000401393630268936B0C8A4F4E06EB045467
:101C5000234393630A790B7CD21AD21C02EB8202D3
:101C60001F2393400268946B9C4394630A790B7C16
:101C7000D21AD21C02EB82030A8892B29A400368FD
:101C80009C6B22439A638A69AA420268936823F490
:101C900070239360026893680CD08C69234393602F
:101CA0000268936823F44013936002689368CC69D8
:101CB000234301E023F4401393604A7D002A026825
:101CC000536802D043F4806301E023F480635360DF
:101CD0000A7D002A0268536802D043F4805301E071
:101CE00023F4805353604A68012A16D0022A1FD079
:101CF000032A026827D0136A6FF30B03136202688A
:101D0000136ACC6823431362214B04681F4A9C4228
:101D100027D10C68122C20D023E0026853696FF39E
:101D20000B03536102685369CC6823435361EBE7AB
:101D3000026893696FF30B03936102689369CC683F
:101D400023439361E0E7D3696FF30B03D361026828
:101D5000D369CC682343D361D6E7546844F4800444
:101D6000546004689C4208D10968102901D01129E7
:101D700003D1516841F400015160002180F83C100A
:101D8000084670BD01000F000000F0FF0023014075
:101D90000020014078B50024009490F83C20012AEE
:101DA00019D0012280F83C200A6807230568092A17
:101DB00013D9EE680A3A02EB420293409E43EE606A
:101DC0000B788A680A3B03EB43039A400368DD689B
:101DD0002A43DA6010E0022078BD2E6902EB42024D
:101DE00093409E432E610B788A6803EB43039A402D
:101DF00003681D692A431A614A681F23072A13D200
:101E000005686E6B521E02EB820293409E436E6326
:101E10000B790A885B1E92B203EB83039A40036836
:101E20005D6B2A435A6327E005680D2A12D22E6B98
:101E3000D21F02EB820293409E432E630B790A88E5
:101E4000DB1F92B203EB83039A4003681D6B2A43A6
:101E50001A6311E0EE6A0D3A02EB820293409E4350
:101E6000EE620B790A880D3B92B203EB83039A4032
:101E70000368DD6A2A43DA62164B0568144A9D42FC
:101E800006D10D68122D03D1556845F480055560C3
:101E900005689D4218D10B68102B01D0112B13D16E
:101EA000536843F400035360096810290CD10A49B0
:101EB0000A4A0968B1FBF2F101EB8101490000E037
:101EC000491E00910029FBD180F83C40002078BDDC
:101ED0000023014000200140AC00002040420F00E0
:101EE00070B504004FF0000503D0206C002610B13F
:101EF00007E0012070BD204600F01CF8666484F8FD
:101F00003C60206CC00610D4206C20F4885040F057
:101F1000020020642046FEF7F5FC6664206C20F089
:101F2000020040F00100206400E0012584F83C60DC
:101F3000284670BD10B586B0044614216846FEF7E9
:101F4000E9F91149206888421CD110480021026833
:101F500042F480720260006800F4807005900B48C3
:101F60001438026842F001020260006800F00100CB
:101F70000590022000900320CDE901016946044844
:101F800001F0DCFB06B010BD0020014044380240E7
:101F90000000024018B50021009190F83C20012A71
:101FA00007D0012280F83C2002689368DB0702D04A
:101FB00011E0022018BD936843F0010393602E4A9C
:101FC0002E4B1268B2FBF3F202EB420200E0521E0B
:101FD0000092002AFBD102689368DB0742D0036CB1
:101FE00040F20164A34343F48073036453685B05C8
:101FF00005D5036C23F4005343F480530364036C4E
:10200000DB0404D5436C23F00603436400E0416421
:1020100080F83C101A496FF0220313604968006889
:10202000CA06184906D0884224D1816811F0405F61
:1020300013D01FE08842F8D0134A904203D1D1F860
:102040000423D206F1D0114A904213D1D1F80413DF
:1020500001F01F011029E8D30CE0816841F08041B4
:10206000816007E0016C41F010010164416C41F0B6
:1020700001014164002018BDAC00002040420F0067
:1020800000230140002001400021014000220140C6
:1020900090F82020012A07D0022A05D0416A41F495
:1020A0008021416201207047006842690A43426111
:1020B00000207047F0B590F820500468A468012D06
:1020C00005D0022D03D0416A41F4802153E014F081
:1020D000406F01D1E5004BD5C4F30164022C03D954
:1020E000416A41F4000146E00125A5401D608D686C
:1020F0004FF4C0739DB1CE6835434E6845EAC605BE
:10210000066803EB0417F5514FF4C275076805EB39
:1021100004150E697E51097D012905D009E00E885C
:10212000CD6845EA4655EBE701684E5946F480769E
:102130004E511179D2F805504FF4C67641EA052583
:10214000016806EB04168D511178D2F801204FF486
:10215000C47541EA0221026805EB0415515100687B
:1021600003EB0411425842F0010242500020F0BD3E
:10217000416A41F4001141620120F0BD10B590F8B0
:102180002020012A07D0022A05D0416A41F480218B
:102190004162012010BD3B48D0F8002242F001020C
:1021A000C0F80022D0F8002222F47C52C0F80022AD
:1021B000D0F800224B6A42EA0322C0F800220A7DCE
:1021C00002F01F0301229A40D0F81C329343C0F85A
:1021D0001C32CB69B3B9D0F80C329343C0F80C323F
:1021E0008C894B6864F31F434C6900EBC404C4F84A
:1021F00040320C890B6864F31F434C6900EBC40444
:10220000C4F84432CB69012B16D1D0F80C321343F9
:10221000C0F80C320C884B6864F31F434C6900EB28
:10222000C404C4F840320C89CB6864F31F434C6982
:1022300000EBC404C4F844328B69002BD0F804329C
:102240000ED01343C0F804320B69002BD0F81432BF
:1022500008D01343C0F81432096A012904D008E0F9
:102260009343EFE79343F5E7D0F81C121143C0F80E
:102270001C12D0F8001221F00101C0F80012002059
:1022800010BD000000640040704730B590F8204059
:10229000012C05D0022C03D0416A41F480215DE07D
:1022A0000468002955D02469A40754D04FF4D87489
:1022B000056804EB01142D5915F0040595600568B7
:1022C0002D594ED0ED08556005682C5904F00204D4
:1022D000D4604FF4DA74056804EB01142D5905F04D
:1022E0000F05156105682D59C5F30725956105682A
:1022F0002C59240C54614FF4DC72046802EB011277
:10230000A4581C700468A458240A5C700468A4587B
:10231000240C9C700468A258120EDA704FF4DE721E
:10232000046802EB0112A4581C710468A458240A22
:102330005C710468A458240C9C710468A258120EA5
:10234000DA71006881B1016941F02001016100206A
:1023500030BDE468A8E7416A41F400114162012000
:1023600030BD6D0D1560AFE7C16841F02001C1605F
:10237000EDE72DE9F05F0546006800244669D0F8D6
:1023800004908768D0F80CB0D0F810A0D0F818806E
:10239000F10748D0F90714D001218160B80703D5AF
:1023A000284600F01CFB0CE0780702D54FF40064CF
:1023B00007E0380702D54FF4805402E0284600F0C9
:1023C0000DFBF80516D529684FF480708860B805B4
:1023D00003D5284600F005FB0CE0780502D544F44F
:1023E000005407E0380502D544F4804402E0284652
:1023F00000F0F6FAF80316D529684FF480308860AB
:10240000B80303D5284600F0EEFA0CE0780302D5B5
:1024100044F4004407E0380302D544F4803402E079
:10242000284600F0DFFA300707D55FEACB6004D515
:102430002968102044F40074C86070074FF0080742
:1024400007D55FEA0B7004D52868C760284600F0FE
:10245000ABF9B00706D52868C068800702D02846C7
:1024600000F0A4F9700607D55FEACA6004D52968B0
:10247000102044F480640861B00607D55FEA0A7052
:1024800004D528680761284600F078FAF00606D5DA
:1024900028680069800702D0284600F070FAB0036F
:1024A00008D55FEAC96005D529681020486028462C
:1024B00000F066FAF00307D55FEA097004D52868D2
:1024C0004760284600F090FA300446D55FEA49702C
:1024D00040D5F00504D55FEAC87001D044F001048E
:1024E000B00504D55FEA887001D544F00204700598
:1024F00004D55FEA487001D544F00404300529D5BD
:1025000018F0700F26D008F07000402815D006DCB7
:10251000102809D020280AD0302816D10AE05028E7
:102520000ED0602811D10EE044F008040DE044F014
:1025300010040AE044F0200407E044F0400404E002
:1025400044F0800401E044F480742868816921F03B
:1025500070018161296804204860002C05D0686AF8
:10256000204368622846FFF78FFEBDE8F09F70B5F4
:10257000040003D094F8200010B104E0012070BDE5
:10258000204600F081F82068016821F00201016016
:1025900001F0DCF90546052604E001F0D7F9401BFF
:1025A0000A2811D8206840688007F6D4206801689E
:1025B00041F00101016001F0C9F905460BE001F0AD
:1025C000C5F9401B0A2806D9606A40F400306062F1
:1025D00084F82060D2E720684068C007EFD0207EF2
:1025E0000128206801683DD021F080010160607EF3
:1025F00001282068016838D021F040010160A07EE8
:1026000001282068016833D021F020010160E07EBC
:102610000128206801682ED041F010010160207F60
:1026200001282068016829D021F008010160607F3D
:1026300001282068016824D021F004010160D4E958
:1026400002010843D4E90412114308436168491E9A
:1026500008432168C86100206062012084F82000DE
:10266000002070BD41F08001C0E741F04001C5E7A6
:1026700041F02001CAE721F01001CFE741F0080145
:10268000D4E741F00401D9E7F0B587B0044614213E
:102690006846FDF73FFE3F4B3F48DFF8F4E05968DE
:1026A000D4F800C03C4A0225032609271030002434
:1026B000491CF4452CD15960012907D1016841F02A
:1026C00000710160006800F000700590106840F033
:1026D00001001060106802AB00F0010005904FF49B
:1026E000C050CDE9000583E8D00069462B4801F0D1
:1026F00025F800220521132001F042FB132001F0F0
:1027000031FB00220521142001F03AFB14203BE0AC
:10271000DFF88CE0F44539D1D0F800C04CF0806C83
:10272000C0F800C0D0F800C001290CF0806CCDF8D2
:1027300014C0596007D1016841F000710160006860
:1027400000F000700590106840F002001060106802
:1027500002AB00F0020005904FF44050CDE90005B7
:1027600083E8D00069460F4800F0E8FF0022052109
:102770003F2001F005FB3F2001F0F4FA0022052183
:10278000402001F0FDFA402001F0ECFA07B0F0BD66
:102790000064004030000020303802400000024059
:1027A00000680040000402407047000070B5064613
:1027B00000686949694C6A4D8AB088423BD107ABD1
:1027C0006A4600213046FFF760FD00986549A0F594
:1027D0000070013806D0012809D008281ED0092829
:1027E00029D10DE0BDF81E0040BA088123E0BDF8F4
:1027F0001E0040BAA1F874004042A1F870011AE02E
:10280000207F401C2077BDF81C0040BAA5F8D600F8
:10281000BDF81E0040BAA5F8D8000CE0E07E401CD0
:10282000E076BDF81C0040BAA5F8EC00BDF81E002B
:1028300040BAA5F8EE004C493068884220D107AB79
:102840006A4600213046FFF720FD00994748B1F560
:10285000017F43D016DCA1F50071013929D001298F
:1028600033D002290CD1217E491C2176BDF81E10DF
:1028700049BA20F8E01F00BFBDF8201049BA4180D6
:102880000AB070BD3A4EA1F50071063934D0032963
:1028900050D00B29F4D13748BDF81C100180BDF889
:1028A0001E104180BDF820108180BDF82210C1802B
:1028B000E6E7A17D491CA175BDF81E1049BA01814A
:1028C000BDF8201049BA4181DAE7E17D491CE17584
:1028D000BDF81E1049BA20F8741FCDE7617E491C6F
:1028E0006176BDF81E1049BAA0F84C11BDF8201051
:1028F00049BAA0F84E11C3E7A07E401CA076BDF8EF
:102900001C001D4C41BA7180BDF81E0040BAA4F8ED
:102910006E0017480830FEF72DFF70880A21B0FBC3
:10292000F1F1134840F233320830006800FB021026
:102930006067A5E7E07E4FF4B471401CE076BDF817
:102940001C0040BA4843A1EB50303080E880BDF80D
:102950001E0040BA288193E700640040BC050020B7
:10296000B8520020905600200068004064540020B7
:102970003000002024560020045800207047704783
:102980007047000070B5044690F82000012804D07C
:10299000606A40F40020606218E0022084F82000A1
:1029A0002068016821F00101016000F0CFFF0546B9
:1029B0000EE000BF00F0CAFF401B0A2808D9606A79
:1029C00040F400306062052084F82000012070BDD2
:1029D00020684068C007EDD1606270BD70477047E5
:1029E0007047704770477047704700002DE9F84FF7
:1029F000044600200A9D009094F8340001280DD070
:102A0000012084F8340094F835600020012E07D0AE
:102A100084F8340002200090BDE8F88F0220FBE724
:102A2000022684F8356060652068066846F48026D2
:102A30000660206803612B462046FEF703FFFF482F
:102A4000FD4AFE4BFC4DFD4EFB4FDFF8EC83DFF8FB
:102A5000ECC3DFF8E4932168DFF8E0E3A838483AF4
:102A6000483B1835903E303F4FF4006A4FF4001B4E
:102A7000ACF1300C09F13009414534D9814205D01F
:102A8000914203D0994201D0A94201D1202125E0F1
:102A9000B14205D0B94203D0614501D0494501D1C9
:102AA00051461BE0DFF89483A8F17808414511D026
:102AB000DFF88483A8F1180841450BD0DFF87C8348
:102AC000A8F11808414505D0DFF86C8308F14808E3
:102AD000414501D1594601E04FF00061DFF85883CC
:102AE000A8F14C0835E0714536D9814205D09142B4
:102AF00003D0994201D0A94201D1202125E0B14261
:102B000005D0B94203D0614501D0494501D15146B4
:102B10001BE0DFF82883A8F17808414511D0DFF8E1
:102B20001883A8F1180841450BD0DFF81083A8F1ED
:102B30001808414505D0DFF8008308F148084145F1
:102B400001D1594601E04FF00061DFF8EC82A8F1B5
:102B50005008C8F8001072E0DFF8E082A8F16008C1
:102B6000414536D9814205D0914203D0994201D0E6
:102B7000A94201D1202125E0B14205D0B94203D0BC
:102B8000614501D0494501D151461BE0DFF8AC82D7
:102B9000A8F17808414511D0DFF89C82A8F1180807
:102BA00041450BD0DFF89482A8F11808414505D0C3
:102BB000DFF8848208F14808414501D1594601E017
:102BC0004FF00061DFF87482A8F1B808C8F80C1063
:102BD00035E0814205D0914203D0994201D0A9420B
:102BE00001D1202125E0B14205D0B94203D0614591
:102BF00001D0494501D151461BE0DFF84082A8F1E0
:102C00007808414511D0DFF83082A8F11808414515
:102C10000BD0DFF82882A8F11808414505D0DFF86D
:102C2000188208F14808414501D1594601E04FF0AA
:102C30000061DFF80882A8F1B808C8F80810DFF8CA
:102C4000F88121684FF4806A4FF4801B414534D9E4
:102C5000814205D0914203D0994201D0A94201D1CD
:102C6000102125E0B14205D0B94203D0614501D021
:102C7000494501D151461BE0DFF8C081A8F1780831
:102C8000414511D0DFF8B081A8F1180841450BD0BB
:102C9000DFF8A881A8F11808414505D0DFF8988130
:102CA00008F14808414501D1594601E04FF08061E3
:102CB000DFF88481A8F14C0835E0714536D98142AE
:102CC00005D0914203D0994201D0A94201D11021EF
:102CD00025E0B14205D0B94203D0614501D0494554
:102CE00001D151461BE0DFF85481A8F17808414535
:102CF00011D0DFF84481A8F1180841450BD0DFF866
:102D00003C81A8F11808414505D0DFF82C8108F175
:102D10004808414501D1594601E04FF08061DFF894
:102D20001881A8F15008C8F8001072E0DFF80C8193
:102D3000A8F16008414536D9814205D0914203D0BF
:102D4000994201D0A94201D1102125E0B14205D01C
:102D5000B94203D0614501D0494501D151461BE03C
:102D6000DFF8D880A8F17808414511D0DFF8C88095
:102D7000A8F1180841450BD0DFF8C080A8F1180869
:102D8000414505D0DFF8B08008F14808414501D140
:102D9000594601E04FF08061DFF8A080A8F1B80843
:102DA000C8F80C1035E0814205D0914203D0994219
:102DB00001D0A94201D1102125E0B14205D0B9428C
:102DC00003D0614501D0494501D151461BE0DFF8F0
:102DD0006C80A8F17808414511D0DFF85C80A8F13B
:102DE000180841450BD0DFF85480A8F11808414578
:102DF00005D0DFF8448008F14808414501D1594623
:102E000001E04FF08061DFF83480A8F1B808C8F81D
:102E10000810DFF8248021684FF4007A4FF4002B6B
:102E2000414534D9814205D0914203D0994201D025
:102E3000A94205D1082125E058640240B86002404B
:102E4000B14205D0B94203D0614501D0494501D115
:102E5000514617E0DFF8D08441450FD0DFF8CC842D
:102E600041450BD0DFF8C08408F16008414505D02A
:102E7000DFF8B88408F16008414501D1594601E006
:102E80004FF00071DFF8A484A8F1340831E07145F7
:102E900032D9814205D0914203D0994201D0A94252
:102EA00001D1082121E0B14205D0B94203D06145EA
:102EB00001D0494501D1514617E0DFF86C84414506
:102EC0000FD0DFF8688441450BD0DFF85C8408F14F
:102ED0006008414505D0DFF8548408F16008414599
:102EE00001D1594601E04FF00071DFF84084A8F1AC
:102EF0003808C8F800106AE0DFF82C8408F11808D8
:102F0000414532D9814205D0914203D0994201D046
:102F1000A94201D1082121E0B14205D0B94203D034
:102F2000614501D0494501D1514617E0DFF8F883EA
:102F300041450FD0DFF8F48341450BD0DFF8E8833B
:102F400008F16008414505D0DFF8E08308F160082A
:102F5000414501D1594601E04FF00071DFF8C883C7
:102F6000A8F14008C8F80C1031E0814205D0914228
:102F700003D0994201D0A94201D1082121E0B142F8
:102F800005D0B94203D0614501D0494501D1514630
:102F900017E0DFF8948341450FD0DFF89083414577
:102FA0000BD0DFF8848308F16008414505D0DFF8D5
:102FB0007C8308F16008414501D1594601E04FF09A
:102FC0000071DFF86483A8F14008C8F80810DFF842
:102FD0005C83216808F118084FF4807A4FF4802B45
:102FE000414530D9814205D0914203D0994201D068
:102FF000A94201D1042121E0B14205D0B94203D058
:10300000614501D0494501D1514617E0DFF81883E9
:1030100041450FD0DFF8148341450BD0DFF808831A
:1030200008F16008414505D0DFF8008308F1600829
:10303000414501D1594601E04FF08071DFF8EC8243
:10304000A8F1340831E0714532D9814205D091426E
:1030500003D0994201D0A94201D1042121E0B1421B
:1030600005D0B94203D0614501D0494501D151464F
:1030700017E0DFF8B48241450FD0DFF8B082414558
:103080000BD0DFF8A48208F16008414505D0DFF8D5
:103090009C8208F16008414501D1594601E04FF09A
:1030A0008071DFF88882A8F13808C8F800106AE05B
:1030B000DFF8748208F11808414532D9814205D001
:1030C000914203D0994201D0A94201D1042121E0CB
:1030D000B14205D0B94203D0614501D0494501D183
:1030E000514617E0DFF8408241450FD0DFF83C82BF
:1030F00041450BD0DFF8308208F16008414505D02A
:10310000DFF8288208F16008414501D1594601E005
:103110004FF08071DFF81082A8F14008C8F80C1059
:1031200031E0814205D0914203D0994201D0A942B9
:1031300001D1042121E0B14205D0B94203D061455B
:1031400001D0494501D1514617E0DFF8DC81414506
:103150000FD0DFF8D88141450BD0DFF8CC8108F1E2
:103160006008414505D0DFF8C48108F16008414599
:1031700001D1594601E04FF08071DFF8AC81A8F130
:103180004008C8F80810DFF8A481216808F1180881
:103190004FF4803A4FF4800B414527D9814205D046
:1031A000914203D0994201D0A94201D101201AE0F5
:1031B000B14205D0B94203D0614501D0494501D1A2
:1031C000402010E0584881420AD05848814207D038
:1031D00055486030814203D054486030814201D16B
:1031E000504600E058465149343928E0714528D905
:1031F000814205D0914203D0994201D0A94201D128
:1032000001201AE0B14205D0B94203D0614501D096
:10321000494501D1402010E0434881420AD043484B
:10322000814207D040486030814203D03F4860303F
:10323000814201D1504600E058463C493839086087
:1032400056E0DFF8E48008F11808414528D98142AA
:1032500005D0914203D0994201D0A94201D1012069
:103260001AE0B14205D0B94203D0614501D04945C9
:1032700001D1402010E02C4881420AD02B488142E5
:1032800007D029486030814203D02848603081420D
:1032900001D1504600E0584623494039C86027E034
:1032A000814205D0914203D0994201D0A94201D177
:1032B00001201AE0B14205D0B94203D0614501D0E6
:1032C000494501D1402010E0174881420AD01748F3
:1032D000814207D014486030814203D013486030E7
:1032E000814201D1504600E058460F49403988607C
:1032F0002068016841F0160101602068416941F0D1
:1033000080014161206C08B9A06C20B1206801687F
:1033100041F0080101602068016841F0010101608D
:103320000098BDE8F88F0000406002404064024011
:103330002DE9F0410446876D00F008FB064694F83D
:1033400035000025022806D08020606584F83450BE
:103350000120BDE8F0812068016821F016010160BC
:103360002068416921F080014161206C08B9A06C9E
:1033700020B12068016821F008010160206801681F
:1033800021F0010101600BE000F0E0FA801B05284C
:1033900006D92020606504F8345F03206070D8E708
:1033A00020680068C007EFD194F85C103F20884087
:1033B000B86004F8345F012060700020C9E790F81D
:1033C0003510022903D08021416501207047052175
:1033D00080F835100068016821F0010101600020CB
:1033E000704700002DE9F84304464FF00009CDF87E
:1033F000009063484FF41651A56D0068B0FBF1F7DB
:103400002E6894F85C10082000FA01F131420FD0C8
:1034100021680A6852070BD50A6822F004020A6084
:1034200094F85C108840A860606D40F00100606511
:1034300094F85C104FF0010808FA01F0304208D00F
:1034400021684969090604D5A860606D40F0020052
:10345000606594F85C1004208840304208D02168F0
:103460000968890704D5A860606D40F004006065B4
:1034700094F85C1010208840304218D02168096808
:10348000090714D5A86020680168490304D50068BD
:10349000000308D5A16C07E00168C90503D40168E1
:1034A00021F008010160216C09B12046884794F899
:1034B0005C1020208840304231D021680968C9065C
:1034C0002DD5A86094F8350005282068016806D03D
:1034D000490347D5006800031DD4616C1CE021F04E
:1034E000160101602068416921F080014161206C72
:1034F00008B9A06C20B12068016821F008010160C2
:1035000094F85C103F208840A86084F8349084F8D8
:103510003580216D1FE0E16B09B120468847606D61
:1035200000282BD0606DC00714D0052084F835002A
:103530002068016821F0010101600098401C0090A2
:10354000B84203D820680068C007F6D184F83490E8
:1035500084F83580E16C002910D001B02046BDE828
:10356000F04308470168C905D5D4016821F010016E
:10357000016084F8349084F83580CCE7BDE8F883A6
:10358000AC0000202DE9F041044600F0DFF90646CA
:103590005CB1002584F83450022084F8350020689E
:1035A000016821F0010101600DE00120BDE8F0811A
:1035B00000F0CCF9801B052805D920206065032088
:1035C00084F83500F2E720680068C007F0D122686F
:1035D000116820480140D4E901031843D4E90336B7
:1035E0003343184363691843A3691843E3691843D5
:1035F000236A18430843616A042903D1D4E90B13F1
:1036000019430843106020684069666A20F007018A
:1036100030460E43012704280CD1A06A0643E06A15
:1036200040B12046FEF7E4F820B14020606584F800
:103630003570BAE7206846612046FEF7C5F894F871
:103640005C203F2191408160656584F835700020E1
:10365000ACE700003F8010F010B590F83440002334
:10366000012C0CD0012480F8344090F83540012C16
:1036700007D00123002180F83410184610BD022025
:1036800010BD0629F6D2DFE801F0030507090B0D8E
:10369000C263EFE70264EDE74264EBE78264E9E7C7
:1036A000C264E7E70265E5E72DE9F0410446866D6F
:1036B00090F83400002501280DD0012084F8340052
:1036C00094F835700020012F07D084F834000225CB
:1036D0002846BDE8F0810220FBE7022784F8357018
:1036E00060652046FEF7BDF894F85C103F208840E6
:1036F000B0602068016841F016010160206C20B1C3
:103700002068016841F0080101602068016841F00B
:1037100001010160DCE7000070B5044600F016F915
:103720000546601C02D004480078044400F00EF9FD
:10373000401BA042FAD370BD480000202DE9F84F8D
:10374000DFF8B8A1002201250AF1040B03264FF08F
:103750000F090BF1040E00BF0B6805FA02F42340B9
:10376000A3426FD10F7907F00307012F01D0022F79
:1037700016D187684FEA420806FA08FC27EA0C07C8
:10378000D1F80CC00CFA08FC4CEA070CC0F808C0D1
:103790004768A7430C79C4F3001494403C43446049
:1037A0000C79E443A4070AD0C4684FEA420C06FA35
:1037B0000CF7BC438F6807FA0CF72743C7600C79F6
:1037C00004F00304022C12D1D40800EB840CDCF8C2
:1037D00020405707FF0E09FA07F824EA0804D1F839
:1037E000108008FA07F848EA0408CCF8208004683A
:1037F0004FEA420C06FA0CF7BC430F7907F00307B7
:1038000007FA0CF7274307604C68E40070D53C4C7E
:10381000276847F480472760246822F0030704F4F0
:1038200080440094374C07EB040CDCF808489707F9
:103830004FEA177809FA08F7BC43334FB84202D170
:10384000002724E054E0314FB84201D101271EE0A7
:103850002F4FB84201D1022719E02E4FB84201D1B3
:10386000032714E02C4FB84201D104270FE02B4F5F
:10387000B84201D105270AE0294FB84201D10627F5
:1038800005E0284FB84201D1072700E0082707FAD2
:1038900008F72743CCF80878DAF800405746D1F803
:1038A00004C09C435FEACC3C00D51C433C60DBF881
:1038B00000405F46D1F804C09C435FEA8C3C00D5D1
:1038C0001C433C60DEF800407746D1F804C09C43BE
:1038D0005FEACC2C00D51C433C60084F0C373C6899
:1038E000D1F804C09C435FEA8C2C00D51C433C609B
:1038F000521C102AFFF430AFBDE8F88F003C0140A5
:103900004438024000300140000002400004024000
:1039100000080240000C0240001002400014024067
:1039200000180240001C02400069084000D001203D
:103930007047426921EA02030A4043EA0241816179
:1039400070470AB1816170470904FBE7014880684C
:10395000704700004800002070B5040025D094F89E
:103960003D00002520B984F83C50204600F04EF977
:10397000242084F83D002068016821F001010160E5
:103980002068016841F4004101602068016821F469
:103990000041016000F0E0FA4D4A6168914201D8AF
:1039A0004C4900E04C49884201D2012070BD4B498E
:1039B0002368B0FBF1F15E6826F03F060E435E60BF
:1039C0006368934206D94FF4967359434FF47A7360
:1039D000B1FBF3F12368491C1E6A26F03F06314310
:1039E00019626168914210D84900401EB0FBF1F2A3
:1039F000521CC2F30B02042A01D2042022E0B0FBC5
:103A0000F1F0401CC0F30B001CE0A268F2B301EB24
:103A1000C10303EB0116431EB3FBF6F35B1C43F437
:103A200080431B0549D092B301EBC10202EB0111A7
:103A3000401EB0FBF1F0401CC0F30B0040F480408E
:103A400040F400402168CA694CF6FF739A43104362
:103A5000C861D4E9071001432068026822F0C0025F
:103A600011430160D4E9030101432068826848F2F0
:103A7000FF339A4311438160D4E90501084321686B
:103A8000CA6822F0FF021043C86001E00EE016E0B1
:103A90002068016841F0010101602564202084F85C
:103AA0003D00256384F83E50002070BD01EB4106C7
:103AB000431EB3FBF6F35B1CB3E70120C2E701EB47
:103AC0004101401EB0FBF1F0401CC0F30B00B7E712
:103AD000A086010080841E0000093D0040420F00C6
:103AE0002DE9F84F1F4690468A460446DDF8289097
:103AF000FFF72CFF054694F83D0020287FD11923BD
:103B0000012240492046009501F054FF002876D15B
:103B100094F83C00012872D0012084F83C00206811
:103B20000168C90703D1016841F001010160206803
:103B3000016821F400610160212084F83D0010201B
:103B400084F83E0000262664C4F824806785608DD2
:103B500020852D48E0622B464A465146204601F01A
:103B6000B5FE90B9206841698069009036E02A4628
:103B70004946204601F09DFF50B1206C042804D135
:103B80002068016841F4007101600120BDE8F88FF0
:103B9000606A216800780861606A401C6062618D1B
:103BA000491E6185218D491E89B22185226853698C
:103BB000DB435B070BD451B100781061606A401C95
:103BC0006062608D401E6085208D401E20852A46E3
:103BD0004946204601F0C8FE0028CED1208D00289D
:103BE000C5D154F83D0B016841F4007101602020FB
:103BF00004F81E09E67766770020C7E7FFE7022092
:103C0000C4E70000020010000000FFFF10B586B0FE
:103C1000044614216846FCF77DFB1349206888425E
:103C200020D11248016841F0020101600068694634
:103C300000F002000590C0200090122001900120A9
:103C4000029003200390042004900948FFF776FDBA
:103C500006481030016841F400110160006800F46A
:103C60000010059006B010BD0054004030380240EE
:103C70000004024002488168027811448160704764
:103C8000480000200B4810B5016841F40071016044
:103C9000016841F480610160016841F48071016054
:103CA000032000F08DF8002000F006F800F03EF848
:103CB000002010BD003C024010B5014688B0002233
:103CC000362000F05DF8362000F04CF81348002450
:103CD000016841F010010160006805A900F01000C2
:103CE0000690684600F018F900F036F90C494000DB
:103CF000B0FBF1F10C480B4A491E026040F2E7327A
:103D0000C0E90324C0E9011400F034FC10B1012023
:103D100008B010BD044800F0B7FCF9E74038024095
:103D200040420F00001000404C1200200C4882B0AE
:103D3000016841F480410160006800F48040009017
:103D40000748001F016841F08051016000680022AF
:103D500000F0805000900F21901E02B000F010B8CB
:103D600044380240002809DB00F01F020121914085
:103D70004009800000F1E020C0F800117047000009
:103D8000F0B40E4B1B680C46C3F30223C3F10705C6
:103D9000042D00D90425191D072901D2002300E0B4
:103DA000DB1E012606FA05F1491E214099409E407E
:103DB000761E16403143F0BC05F092B90CED00E0E0
:103DC000064900F0070208684FF6FF03184040EA72
:103DD0000220034A10430860704700000CED00E029
:103DE0000000FA052DE9F0470E46050065D0DFF822
:103DF0001481D8F80000F7B200F00700B04207D2F3
:103E000088F80070D8F8000000F00700B04254D1E4
:103E100028683D4C810712D5400703D5206840F43F
:103E2000E05020602878000703D5206840F4604007
:103E300020602068A96820F0F000084320602878FE
:103E4000C0072DD0304968680839012812D00228EF
:103E500013D0032811D00968890700292DDA2168B9
:103E600021F0030101432160FFF770FD814641F21B
:103E7000883A0EE009688903EFE709688901ECE7F1
:103E8000FFF764FDA0EB0901514502D90320BDE80D
:103E9000F0872068696800F00C00B0EB810FEFD16B
:103EA000D8F80010404601F00701B14207D9077069
:103EB000006800F00700B04201D00120E7E7287851
:103EC000400705D52068E96820F4E05008432060E9
:103ED0002878000706D52068296920F4604040EA68
:103EE000C100206000F058F82168084AC1F30311AE
:103EF000515CC8400649086006480068FFF7DCFED0
:103F00000020C4E7003C0240083802404CC10008D1
:103F1000AC0000204C0000200F2202600C4A136805
:103F200003F003034360136803F0F0038360136836
:103F300003F4E053C36012684FF4E05303EAD20283
:103F400002610448006800F0070008607047000044
:103F500008380240003C02400448054900680968EE
:103F6000044AC1F38221515CC8407047AC00002074
:103F7000083802405CC10008044805490068096827
:103F8000044AC1F34231515CC8407047AC00002084
:103F9000083802405CC10008154810B5006810F0F0
:103FA0000C02144813D01449042A0FD0082A0ED149
:103FB0000F4C241F2268236802F03F025B0207D5E2
:103FC0002068C0F38810A0FB010106E0084610BD80
:103FD0002168C1F38811A1FB00010023FCF750F90F
:103FE0002168C1F30141491C4900B0FBF1F010BD4B
:103FF000083802400024F40040787D012DE9F84F94
:1040000004006ED02078DFF84C93C007A9F10405B6
:104010004AD009F104000168C1F38101012908D0E7
:104020000068C0F3810002280AD1D9F800004002DC
:1040300006D52868800337D560680028E1D033E0D2
:104040006068B0F5803F10D0B0F5A02F286810D080
:1040500020F480302860286820F480202860606880
:10406000A8B1FFF773FC06460DE0286840F48030E5
:10407000F4E740F480202860F7E700BFFFF766FC14
:10408000801B642873D828688003F7D50CE0FFF7FD
:104090005DFC064605E000BFFFF758FC801B642866
:1040A000F0D828688003F7D42078DFF8AC82800746
:1040B0004FF0000A3ED5A748001D016811F00C0F13
:1040C00008D00068C0F3810002280BD1D9F80000A5
:1040D000400207D42868800716D5E068012800D17F
:1040E00012E033E1E068B8B10120C8F80000FFF742
:1040F0002DFC064605E000BFFFF728FC801B0228C8
:10410000C0D828688007F7D52868216920F0F80012
:1041100040EAC10028600DE0C8F800A0FFF716FCD7
:10412000064604E0FFF712FC801B02281FD828680F
:104130008007F7D42078000722D5864F8748616929
:10414000703771B101210160FFF700FC064604E001
:10415000FFF7FCFB801B022809D838688007F7D5D9
:104160000EE0C0F800A0FFF7F1FB064605E082E094
:10417000FFF7ECFB801B02287DD838688007F7D456
:104180002078400768D5DFF8CCB100270BF13C0B55
:10419000DBF80000C0000BD4DBF8001041F08051C8
:1041A000CBF80010DBF80000012700F080500090F1
:1041B0006B4E3068C00510D4306840F480703060B9
:1041C000FFF7C4FB009005E0FFF7C0FB0099401A21
:1041D000022850D83068C005F6D55E4EA0686C360F
:1041E00001280FD00528306810D020F00100306081
:1041F000306820F004003060A068B8B1FFF7A6FB7B
:1042000000900FE0306840F00100F4E740F0040057
:104210003060F7E7FFF79AFB0099411A41F28830C6
:10422000814266D830688007F4D50EE0FFF78EFB38
:10423000009007E0FFF78AFB0099411A41F28830AD
:10424000814256D830688007F4D42FB1DBF80010D3
:1042500021F08051CBF80010A069C8B33D49091D79
:104260000968C1F3810102294AD00228504607D0CB
:10427000C8F8600000E03CE0FFF768FB04463BE064
:104280004746C8F86000FFF761FB064605E000BF3F
:10429000FFF75CFB801B02282BD828688001F7D42D
:1042A000D4E907010843A16A2E4A490802EB0141FB
:1042B000626A41EA8211084394F82C1040EA0161D5
:1042C000C9F8001001203866FFF740FB044606E0FD
:1042D0003EE000BFFFF73AFB001B022809D8286820
:1042E0008001F7D534E000BFFFF730FB001B022848
:1042F00002D90320BDE8F88F28688001F4D427E0B4
:104300000128F7D0D9F80000E26900F48001914259
:104310001CD1226A00F03F01914217D147F6C071CB
:10432000626A0140B1EB821F10D1A26A4FF0FF33E5
:1043300000F4403103EB5202B1EB024F06D194F886
:104340002C1000F07060B0EB016F01D00120D1E7BC
:104350000020CFE70438024000004742800E474269
:10436000007000400000FFFF70B5040009D0606AD3
:10437000002540B125616561A56294F8510040B106
:104380000CE0012070BD6068B0F5827FF4D0E5617B
:10439000F2E784F85050204600F044F8022084F8F8
:1043A00051002068016821F040010160A088218946
:1043B00000F4827001F404410843A18901F4006112
:1043C0000843217C01F002010843217D01F0010135
:1043D0000843218B01F400710843217F01F038016B
:1043E000084394F8201001F080010843218D01F466
:1043F0000051084321680860A069042101EA1040C7
:1044000094F8241001F010010843216848602068E6
:10441000C16921F40061C1616565012084F8510022
:10442000002070BD10B586B0044614216846FBF725
:1044300071FF13492068884220D112480021026888
:1044400042F480520260006800F4805005900D48EC
:104450001438026842F001020260006800F00100B6
:104460000590E02000900220CDE901010320039097
:104470000520049069460448FFF760F906B010BDB6
:10448000003001404438024000000240704770474D
:1044900010B590F83C20012A22D0012280F83C205F
:1044A000CA688C6822F4407222434C6822F480620D
:1044B00022430C6822F4006222430C6922F48052E9
:1044C00022434C6922F400522243C969002322F49A
:1044D00080420A4301684A6480F83C30002010BDE5
:1044E000022010BD70B590F83C20012A32D0012482
:1044F00080F83C40022280F83D2003685A689D689D
:1045000022F070060A6832435A60134B02689A42DE
:1045100014D0B2F1804F11D0104B9A420ED0104BF4
:104520009A420BD00F4B9A4208D00F4B9A4205D0BB
:104530000E4B9A4202D00E4B9A4204D1496825F0A4
:1045400080031943916080F83D40002180F83C10C1
:10455000084670BD022070BD00000140000400400C
:1045600000080040000C00400004014000400140F1
:104570000018004010B5040003D094F83D0010B1BD
:1045800007E0012010BD002084F83C00204600F028
:104590001FF8022084F83D00211D206803F038FE3A
:1045A000012084F8460084F83E0084F83F0084F837
:1045B000400084F8410084F8420084F8430084F805
:1045C000440084F8450084F83D00002010BD000040
:1045D00008B52849026828488A420ED1016841F08E
:1045E000200101600068002200F0200000900121FD
:1045F0003720FFF7C5FB372036E01F491F4B091D49
:104600009A420ED1086840F4003008600868002221
:1046100000F40030009005211920FFF7B1FB1920AC
:1046200022E0174B9A420ED1086840F480200860BF
:104630000868002200F48020009005211A20FFF76E
:104640009FFB1A2010E00F498A4211D1016841F402
:10465000807101600068002200F4807000900521E4
:104660002D20FFF78DFB2D20BDE80840FFF77ABB1A
:1046700008BD0000001400404038024000440140E2
:10468000004801400020004090F83D10012901D071
:1046900001207047022180F83D100168CA6842F08D
:1046A0000102CA6000681149884214D0B0F1804FFD
:1046B00011D00F4988420ED00E4988420BD00E49C6
:1046C000884208D00D49884205D00D49884202D061
:1046D0000C49884204D1816801F00701062903D002
:1046E000016841F0010101600020704700000140B5
:1046F0000004004000080040000C0040000401409D
:104700000040014000180040704770B50446006842
:1047100001694FF00005C943890715D4C168C94331
:10472000890711D4E91E0161012020772068806982
:104730008007204602D0FFF7E7FF04E000F0C2F850
:10474000204600F077F9257720680169C9434907B9
:1047500017D4C168C943490713D46FF0040101613C
:10476000022020772068806910F4407F204602D024
:10477000FFF7CAFF04E000F0A5F8204600F05AF960
:10478000257720680169C943090716D4C168C94360
:10479000090712D46FF00801016104202077206816
:1047A000C0698007204602D0FFF7AEFF04E000F0AA
:1047B00089F8204600F03EF9257720680169C94351
:1047C000C90617D4C168C943C90613D46FF01001D4
:1047D0000161082020772068C06910F4407F2046DE
:1047E00002D0FFF791FF04E000F06CF8204600F0E3
:1047F00021F9257720680169C943C90708D1C16833
:10480000C943C90704D1891E0161204600F078F927
:1048100020680169C943090609D4C168C94309066A
:1048200005D46FF0800101612046FFF72FFE20685C
:104830000169C943490609D4C168C943490605D479
:104840006FF040010161204600F09AF9206801698B
:10485000C94389060BD4C168C943890607D46FF0E0
:10486000200101612046BDE87040FFF710BE70BD19
:1048700010B586B0044614216846FBF74BFD0E497F
:104880002068884216D10D480021026842F01002CB
:104890000260006800F0100005904FF4D4400090D2
:1048A0000220CDE901010120CDE903106946044849
:1048B000FEF744FF06B010BD000001403038024052
:1048C00000100240704770B5044690F83C000D4659
:1048D00001280AD0012084F83C0042B1042A18D0F3
:1048E000082A2AD00C2A4DD139E0022070BD206858
:1048F00003F000FD2068816941F0080181612068B2
:10490000816921F004018161206881692A6911436C
:1049100011E0206803F01EFD2068816941F4006108
:1049200081612068816921F48061816120688169E9
:104930002A6941EA0221816124E0206803F040FDF8
:104940002068C16941F00801C1612068C16921F096
:104950000401C1612068C1692A69114311E020681E
:1049600003F062FD2068C16941F40061C161206803
:10497000C16921F48061C1612068C1692A6941EA85
:104980000221C161002084F83C0070BD10B5040014
:1049900003D094F83D0010B107E0012010BD0020C5
:1049A00084F83C00204600F01FF8022084F83D0007
:1049B000211D206803F02CFC012084F8460084F8B7
:1049C0003E0084F83F0084F8400084F8410084F8F9
:1049D000420084F8430084F8440084F8450084F8D9
:1049E0003D00002010BD000008B500680F49884256
:1049F0001AD10F48016841F00101016000680022EE
:104A000000F00100009005211920FFF7B9F91920E5
:104A1000FFF7A8F9002205211A20FFF7B1F9BDE838
:104A200008401A20FFF79EB908BD000000000140B1
:104A3000443802407047000010B50446022249B1D4
:104A400004290ED0082913D094F84100012816D06B
:104A5000012010BD94F83E000128F9D184F83E20D1
:104A60000FE094F83F000128F2D184F83F2008E0DD
:104A700094F840000128EBD184F8402001E084F84C
:104A800041200122206803F027FC16492068164ABD
:104A9000884201D0904203D1436C43F40043436405
:104AA0002068884213D0B0F1804F10D00F4988425F
:104AB0000DD00F4988420AD00E49884207D0904253
:104AC00005D00D49884202D00C49884204D1816842
:104AD00001F00701062903D0016841F001010160DE
:104AE000002010BD0000014000040140000400400F
:104AF00000080040000C0040004001400018004049
:104B000070B5044600681749884201D1FFF7B2F832
:104B10001549206888420AD1144914220D46A1F192
:104B20001400FBF7DEFB14212846FBF7F3FB1049CA
:104B3000206840F2FF25884208D10E492846FCF73C
:104B40001FF90D494FF40070FCF75CF90B49206820
:104B5000884206D12846BDE870400649DC39FCF79A
:104B600051B970BD0010004000200040D005002069
:104B700000440140585400201456002000480140D1
:104B80007047704770470000F8B502680446106827
:104B9000D168536910F00F0F4FF0000554D003F0A7
:104BA000010601F4907737435FD0C20705D0CA05EC
:104BB00003D5226C42F001022264420705D5DA07D0
:104BC00003D0226C42F002022264820705D5DA0784
:104BD00003D0226C42F004022264020707D501F0E0
:104BE0002002324303D0226C42F008022264226C7D
:104BF000002A35D0800604D5880602D5204603F069
:104C000041FD20684069216CC0F3801001F008016B
:104C10000143204625D003F014FD20684169490670
:104C20001BD5416921F040014161A06BA8B15949F0
:104C30000165A06BFEF7C3FB002811D0A06B016DCE
:104C400001B0BDE8F040084783060ED58B060CD5B1
:104C50002046BDE8F84003F015BD2046FFF792FF5F
:104C6000F8BDFFF78FFF2564F8BD266B2023012ECA
:104C700053D1C60651D5CE064FD510685068009066
:104C8000506940062BD5A16B086840680004000CF1
:104C9000EAD0A68D8642E7D9E085C869B0F5807F65
:104CA00018D0D06820F48070D0602068416921F06D
:104CB000010141612068416921F04001416184F8AE
:104CC0003E3025632068C16821F01001C160A06BEF
:104CD000FEF72EFBA08DE18D401A81B219E0A08D68
:104CE000E18D401A81B2E08D0028BDD00029BBD0F3
:104CF000D06820F49070D0602068426922F00102F0
:104D0000426184F83E3025632068C26822F01002B8
:104D1000C2602046FFF735FFF8BD05062BD50D060E
:104D200029D594F83D002128F6D1A068B0F5805F20
:104D300001D12069B0B1206A411C2162216800784C
:104D40004860E08C401E0004000CE084E4D1206840
:104D5000C16821F08001C1602068C16841F0400154
:104D6000C160F8BD206A0088C0F308005060206A66
:104D7000801C2062E5E74006F3D54806F1D5D168EE
:104D8000204621F04001D16084F83D3000F08FFAD8
:104D9000F8BD00003D85000870B5040004D094F80B
:104DA0003D00002510B106E0012070BD84F83C50A4
:104DB000204600F023F8242084F83D002068C168D4
:104DC00021F40051C160204603F0DAFC206801693B
:104DD00021F4904101612068416921F02A0141617B
:104DE0002068C16841F40051C1602564202084F826
:104DF0003D0084F83E00002070BD00002DE9F04F1A
:104E000087B0064614216846FBF784FA8648854A2F
:104E1000D6F800C0844910380223032500244FF03F
:104E20000809944521D10A6842F400220A60096801
:104E300001F400210591016841F00401016000685E
:104E400002AA00F004000590A802CDE900030120A9
:104E500082E8210269467548FEF770FC00220521B0
:104E60003420FEF78DFF34203EE06F4ADFF8C0812A
:104E7000121D07274FF0006A4FF4806BC44538D1EC
:104E8000116841F010011160116801F010010591E5
:104E9000016841F0010101600068694600F001000D
:104EA00005904FF4C0608DE8B9006248FEF746FCFB
:104EB000624D61482860C5E901A4C5E9034B6C61F6
:104EC0004FF44030AC61C5E9074028466C62FEF7FC
:104ED00059FB08B1FCF7DAFCB56300221146252026
:104EE000AE63FEF74DFF2520FEF73CFF07B0BDE89F
:104EF000F08FDFF84C81DFF84CE1C4451DD10A6822
:104F000042F400320A60096801F400310591016839
:104F100041F0080101600068694600F00800059052
:104F200060208DE8B9007046FEF708FC00220521DC
:104F30002620FEF725FF2620D6E7DFF80C81C445A2
:104F40004FD10A6842F480220A60096801F4802186
:104F50000591016841F0080101600068694600F0B0
:104F6000080005904FF440708DE8B9007046FEF7D8
:104F7000E5FB324D354860354FF480392860C5E98E
:104F800001A4C5E9034B6C61AC61C5E9074957460B
:104F9000D84628466C62FEF7F5FA08B1FCF776FCB5
:104FA000B563AE63254D2948C0353030E5E80207CA
:104FB0004020A5E81101214845F81449C030AC61F2
:104FC000C5E907496C62FEF7DDFA08B1FCF75EFC43
:104FD0007563002205212720AE63FEF7D1FE27204E
:104FE00082E71B498C4581D1116841F02001116095
:104FF000116801F020010591016841F00401016090
:105000000068694600F004000590C0208DE8390270
:105010000648FEF793FB002205214720FEF7B0FE6D
:10502000472061E7004C0040403802400008024041
:10503000001001400000024040640240B410002013
:1050400000440040000C024000480040286002403C
:105050000014014090F83E30202B0ED159B152B1CE
:1050600090F83C30012B08D0012380F83C3000231D
:10507000036303F00BBC012070470220704790F8D7
:105080003E30202B0ED159B152B190F83C30012B5B
:1050900008D0012380F83C300023036303F02EBCCA
:1050A000012070470220704770B5044600681A4915
:1050B000884209D119481222417F491C4177184979
:1050C00001F65800FFF7C6FF16492068884204D150
:1050D000012215491548FFF7D2FF15492068124DE6
:1050E000884208D111480122691CCC38FFF7C7FF5C
:1050F000687802F005FD0F49206888420BD10A4903
:105100000A480122891C4430FFF7B9FFA878BDE89E
:10511000704003F049BF70BD00100140BC05002085
:105120004C07002000480040400000202C100020C8
:10513000004C004000140140704700002DE9F84386
:10514000044690F83D001F4616460D4620284CD1D7
:10515000C5B1BEB194F83C00012846D0012084F8C6
:105160003C004FF00008C4F84080212084F83D0046
:10517000FEF7ECFBA6848146E684A068B0F5805F6C
:1051800003D004E00120BDE8F883206928B12E4651
:105190005FF0000584F83C800EE00026FAE78021ED
:1051A000204603F0C6FBA0B9AEB116F8010B21688A
:1051B0004860E08C401EE084E08C4B464FF00002DB
:1051C00000970028EBD14FF04001204603F0B1FBDF
:1051D00030B10320D7E735F8020BC0F30800E6E74B
:1051E000202084F83D000020CDE70220CBE700001E
:1051F00070B5044690F83D00202830D169B362B301
:1052000094F83C0001282AD0012084F83C00216257
:10521000A284E28400252564212084F83D00636B8C
:105220001048D863636B10481864636B0F48D864E8
:10523000606B134605652668606B321DFEF734FA15
:1052400021686FF04000086084F83C502068416994
:1052500041F080014161002070BD012070BD02203D
:1052600070BD00000B860008398600084D850008D7
:1052700090F83D30202B18D1A9B1A2B190F83C3064
:10528000012B12D001628284C28400210164212298
:1052900080F83D2080F83C100068C16841F0800132
:1052A000C16000207047012070470220704770479E
:1052B0007047FEE72DE9F04100F048FC044600F09D
:1052C0002DFC064600F030FC0D4D0246002795F8F7
:1052D0002D004FF00108012804F1640402D0B4420B
:1052E0000CD907E0B4EB460F04D2A0B2314600F06F
:1052F00009F818B185F80F80BDE8F081EF73FBE77E
:10530000405600202DE9F04190462DED028B0E46CF
:10531000044600F00FFC07B2002F27DB00F010FC62
:1053200005B2B44222D940F6C4100A21B4420AD9C7
:10533000A21B92FBF0F202FB175215B2B8FBF1F27E
:10534000A21A94B2F2E73846FBF777F99FED0B1BF0
:1053500053EC112BFBF790F841EC180B2846FBF7A8
:105360006CF953EC182BFBF7C3F904D80020BDEC03
:10537000028BBDE8F0810120F9E700009A99999924
:105380009999D93F70B50446254804F093FC244D03
:10539000DFED240A95ED020A30EE200ADFED220A45
:1053A00020EE200ABCEEC00A10EE100A81B21F489F
:1053B000FCF7E0F91D489FED1E1A90ED000A808869
:1053C00000EE900AB8EEC00AF8EE600A00EE810A1C
:1053D000DFED180A20EE200ABDEEC00A10EE100A1A
:1053E000608095ED010ABDEEC00A10EE100AE08063
:1053F0000E48083804F066FC0C4828220838B0F93A
:105400000410494291FBF2F12180B0F902003221EF
:1054100090FBF1F020810848C088A08070BD00009A
:105420002C50002000003443610BB64120010020C5
:105430000000003900C04C44B85200200FB40E22C6
:1054400000B58BB017A907A8FAF74BFF1C2210A9CB
:105450006846FAF746FF0DF1300C9CE80F0000F0AB
:1054600041F800F07FF80648407A0F2801D900F093
:105470004BF900F08BF80BB05DF814EB00F002B8BC
:10548000BC0500201548407A0F281CD9144800217B
:10549000B0F8C220130A00EB4102491C02F8C43FD5
:1054A00090F8C23053700429F2DBB0F8E2104A429F
:1054B000130A80F8A03180F8A1210A0A80F8A221FD
:1054C00080F8A31170470649803100204864886441
:1054D00001F580710862486270470000BC05002039
:1054E000B85200200FB430B587B015AC94E80F0067
:1054F000194C05142583194DE082A4F8FC206D7A1F
:105500000F2D22D91C220EA96846FAF7EAFE0AAD31
:1055100095E80F0000F082F9B4F9D01041F288321A
:105520000F48914204DBA4F8D02040F2451107E077
:1055300040F63C72914204DCA4F8D0204FF6F941C9
:10554000018007B030BC5DF814FB07B030BC5DF8DB
:1055500014EB00F039B90000B8520020BC0500205F
:105560004C01002010B5084C34F9D00F02F04AFB72
:10557000A080B4F9060002F083FCE08134F9D00D7C
:1055800002F0A0FBA08010BDB852002010B5204C46
:105590002DED028BB4F9E400C034FBF74EF89FED1B
:1055A0001D1B53EC112BFAF767FF41EC180BB4F9F4
:1055B0002200FBF742F89FED191B53EC112BFAF771
:1055C0005BFF53EC182BFAF7B0FEFBF747F8A0840B
:1055D000B4F90200FBF731F89FED121B53EC112BCD
:1055E000FAF74AFF41EC180BB4F90000FBF725F875
:1055F0009FED0E1B53EC112BFAF73EFF53EC182BCB
:10560000FAF793FEFBF72AF86080BDEC028B10BD21
:10561000B8520020333333333333D33F6666666684
:105620006666E63F7B14AE47E17AD43FC3F5285C5B
:105630008FC2E53F10B5F1EE082A2DED028BDFEDAC
:10564000238A9FED212A9FED221AF0EE681ADFEDE2
:10565000210A9FED210A214804F09CFE9FED208A3B
:105660001E48DFED201AF0EE482AB0EE482A9FEDE2
:105670001E1AF0EE480A9FED1D0A343004F08AFE2F
:105680001648F0EE082A9FED1A2AF0EE681AB1EEDD
:10569000041ADFED180A9FED180AE03004F07AFED4
:1056A000F0EE482AB0EE482AB0EE481AF0EE480A6A
:1056B000BDEC028BDFED111ABDE810409FED100A22
:1056C000104804F067BE000000007A460060EA4619
:1056D0000000F0440000434300C0B944DC52002005
:1056E000000000000000E144CDCCCC3DCDCCCC404E
:1056F00000A08C4600003442008015440000FA44AB
:105700003333F33FF053002070B52E4CB4F918003A
:1057100000EE100AB4F90400F8EEC00A00EE100A18
:1057200004F15800BE34B8EEC00A04F061FDBDEECD
:10573000C00A0A2510EE100A00B290FBF5F000B284
:1057400024F8BC0C34F9A81C00EE101AF8EEC00ABC
:1057500000EE100AA4F19A00B8EEC00A04F048FD69
:10576000BDEEC00A10EE100A6080B4F9200000EE11
:10577000100AB4F91600F8EEC00A00EE100A04F19F
:105780007A00B8EEC00A04F033FDBDEEC00A10EE98
:10579000100A00B290FBF5F000B2A082B4F93E10FE
:1057A00000EE101AF8EEC00A00EE100A04F14600EE
:1057B000B8EEC00A04F01CFDBDEEC00A10EE100ADF
:1057C000A08470BDB8520020011411489FED110A49
:1057D00020F8021B002120F8A61B0183418300ED65
:1057E0001E0A00ED1D0A00ED1C0A00ED1A0AC28D0A
:1057F0000285094A418511804187818780ED1A0A17
:1058000080ED1B0A80ED1C0A80ED1E0A7047000027
:10581000B8520020000000004C01002070B5054681
:105820002DED048B00B2FAF708FF9FED189B53ECA7
:10583000192BFAF721FE174C41EC180BB4F90000B4
:10584000FAF7FBFE53EC182BFAF710FEFAF706FFF7
:1058500020802814FAF7F1FE53EC192BFAF70CFE0E
:105860000D4D41EC180BB5F90000FAF7E6FE53ECCC
:10587000182BFAF7FBFDFAF7F1FE288041F24321DD
:105880000844A4F8D000BDEC048B70BDB81E85EBB5
:1058900051B88E3FB85200204C01002001684A697F
:1058A000D24352050FD46FF480624A61002140F860
:1058B000301F202242738173026942F004020261A8
:1058C000017301207047002070470000F8B50446BE
:1058D000C06A1E460D461746082807D0012805D085
:1058E00010F5803F02D0206B122804D12068016897
:1058F00041F480710160134600224FF001112046EF
:10590000009600F057F840B120680068C00502D545
:105910004FF4007020640320F8BD2069B0F5804F7B
:105920000ED00620216800EAD51040F0F000086192
:1059300033463A460B49204600F070F878B902E049
:1059400005F0FE0000E0E8B2216808610549334631
:105950003A46891F204600F061F80028DCD001207B
:10596000F8BD00000800010070B516460D4604465B
:105970000DE02046FFF792FF08B1012070BD681CC2
:1059800005D0FDF7E3FF801BA84207D835B120689A
:105990004069C0434007ECD4002070BD002044F8AB
:1059A000300F20216173A073216941F02001216132
:1059B0002073E2E72DE9F0471E4690460D46044667
:1059C000C1F30747DDF8209008E0701C06D0FDF712
:1059D000BDFFA0EB0900B0420FD876B12068012FBF
:1059E00018D0806925EA00000004000C14D00021C2
:1059F0004145EAD00020BDE8F087002044F8300F90
:105A000020216173A073216941F02001216120737D
:105A10000120F0E74069E5E70121E9E72DE9F047DA
:105A20009A4691460E46044600254FF02008C1F3E1
:105A3000074725E020684069C043400514D420682A
:105A4000016841F40071016021686FF48060486171
:105A5000256384F83D8084F83E50206C40F00400BB
:105A6000206484F83C501FE0B9F1FF3F08D0FDF7F7
:105A70006DFFA0EB0A0149450CD8B9F1000F09D020
:105A80002068012F13D0806926EA00000004000C72
:105A90000BD0CFE744F8305F84F80D80A573206900
:105AA00040F02000206125730120BDE8F0874069A7
:105AB000EAE770B516460D4604460DE02046FFF7AE
:105AC000EDFE08B1012070BD681C05D0FDF73EFF5A
:105AD000801BA84207D835B120684069C043000642
